{
  "contractName": "Flashloan",
  "abi": [
    {
      "inputs": [
        {
          "internalType": "address",
          "name": "_kyberAddress",
          "type": "address"
        },
        {
          "internalType": "address",
          "name": "_uniswapAddress",
          "type": "address"
        },
        {
          "internalType": "address",
          "name": "_wethAddress",
          "type": "address"
        },
        {
          "internalType": "address",
          "name": "_daiAddress",
          "type": "address"
        },
        {
          "internalType": "address",
          "name": "_beneficiary",
          "type": "address"
        }
      ],
      "payable": false,
      "stateMutability": "nonpayable",
      "type": "constructor"
    },
    {
      "anonymous": false,
      "inputs": [
        {
          "indexed": false,
          "internalType": "enum Flashloan.Direction",
          "name": "_direction",
          "type": "uint8"
        },
        {
          "indexed": false,
          "internalType": "uint256",
          "name": "_profit",
          "type": "uint256"
        },
        {
          "indexed": false,
          "internalType": "uint256",
          "name": "_time",
          "type": "uint256"
        }
      ],
      "name": "NewArbitrage",
      "type": "event"
    },
    {
      "payable": true,
      "stateMutability": "payable",
      "type": "fallback"
    },
    {
      "constant": true,
      "inputs": [],
      "name": "beneficiary",
      "outputs": [
        {
          "internalType": "address",
          "name": "",
          "type": "address"
        }
      ],
      "payable": false,
      "stateMutability": "view",
      "type": "function"
    },
    {
      "constant": false,
      "inputs": [
        {
          "internalType": "address",
          "name": "sender",
          "type": "address"
        },
        {
          "components": [
            {
              "internalType": "address",
              "name": "owner",
              "type": "address"
            },
            {
              "internalType": "uint256",
              "name": "number",
              "type": "uint256"
            }
          ],
          "internalType": "struct Account.Info",
          "name": "account",
          "type": "tuple"
        },
        {
          "internalType": "bytes",
          "name": "data",
          "type": "bytes"
        }
      ],
      "name": "callFunction",
      "outputs": [],
      "payable": false,
      "stateMutability": "nonpayable",
      "type": "function"
    },
    {
      "constant": false,
      "inputs": [
        {
          "internalType": "address",
          "name": "_solo",
          "type": "address"
        },
        {
          "internalType": "address",
          "name": "_token",
          "type": "address"
        },
        {
          "internalType": "uint256",
          "name": "_amount",
          "type": "uint256"
        },
        {
          "internalType": "enum Flashloan.Direction",
          "name": "_direction",
          "type": "uint8"
        }
      ],
      "name": "initiateFlashloan",
      "outputs": [],
      "payable": false,
      "stateMutability": "nonpayable",
      "type": "function"
    }
  ],
  "bytecode": "0x60806040523480156200001157600080fd5b506040516200285b3803806200285b83398181016040526200003791908101906200019d565b846000806101000a81548173ffffffffffffffffffffffffffffffffffffffff021916908373ffffffffffffffffffffffffffffffffffffffff16021790555083600160006101000a81548173ffffffffffffffffffffffffffffffffffffffff021916908373ffffffffffffffffffffffffffffffffffffffff16021790555082600260006101000a81548173ffffffffffffffffffffffffffffffffffffffff021916908373ffffffffffffffffffffffffffffffffffffffff16021790555081600360006101000a81548173ffffffffffffffffffffffffffffffffffffffff021916908373ffffffffffffffffffffffffffffffffffffffff16021790555080600460006101000a81548173ffffffffffffffffffffffffffffffffffffffff021916908373ffffffffffffffffffffffffffffffffffffffff16021790555050505050506200026d565b600081519050620001978162000253565b92915050565b600080600080600060a08688031215620001b657600080fd5b6000620001c68882890162000186565b9550506020620001d98882890162000186565b9450506040620001ec8882890162000186565b9350506060620001ff8882890162000186565b9250506080620002128882890162000186565b9150509295509295909350565b60006200022c8262000233565b9050919050565b600073ffffffffffffffffffffffffffffffffffffffff82169050919050565b6200025e816200021f565b81146200026a57600080fd5b50565b6125de806200027d6000396000f3fe6080604052600436106100345760003560e01c806338af3eed146100365780638b41871314610061578063c01314761461008a575b005b34801561004257600080fd5b5061004b6100b3565b6040516100589190611f60565b60405180910390f35b34801561006d57600080fd5b506100886004803603610083919081019061192d565b6100d9565b005b34801561009657600080fd5b506100b160048036036100ac91908101906118ca565b610e20565b005b600460009054906101000a900473ffffffffffffffffffffffffffffffffffffffff1681565b6100e1611502565b818060200190516100f591908101906119fe565b90506000600360009054906101000a900473ffffffffffffffffffffffffffffffffffffffff1673ffffffffffffffffffffffffffffffffffffffff166370a08231306040518263ffffffff1660e01b81526004016101549190611f7b565b60206040518083038186803b15801561016c57600080fd5b505afa158015610180573d6000803e3d6000fd5b505050506040513d601f19601f820116820180604052506101a49190810190611a27565b9050600060018111156101b357fe5b826000015160018111156101c357fe5b14156106ea57600360009054906101000a900473ffffffffffffffffffffffffffffffffffffffff1673ffffffffffffffffffffffffffffffffffffffff1663095ea7b36000809054906101000a900473ffffffffffffffffffffffffffffffffffffffff16836040518363ffffffff1660e01b8152600401610247929190611f96565b602060405180830381600087803b15801561026157600080fd5b505af1158015610275573d6000803e3d6000fd5b505050506040513d601f19601f8201168201806040525061029991908101906119d5565b5060008060009054906101000a900473ffffffffffffffffffffffffffffffffffffffff1673ffffffffffffffffffffffffffffffffffffffff1663809a9e55600360009054906101000a900473ffffffffffffffffffffffffffffffffffffffff1673eeeeeeeeeeeeeeeeeeeeeeeeeeeeeeeeeeeeeeee856040518463ffffffff1660e01b815260040161033093929190611ff6565b604080518083038186803b15801561034757600080fd5b505afa15801561035b573d6000803e3d6000fd5b505050506040513d601f19601f8201168201806040525061037f9190810190611a50565b5090506000809054906101000a900473ffffffffffffffffffffffffffffffffffffffff1673ffffffffffffffffffffffffffffffffffffffff16633bba21dc600360009054906101000a900473ffffffffffffffffffffffffffffffffffffffff1684846040518463ffffffff1660e01b815260040161040293929190612056565b602060405180830381600087803b15801561041c57600080fd5b505af1158015610430573d6000803e3d6000fd5b505050506040513d601f19601f820116820180604052506104549190810190611a27565b50606060026040519080825280602002602001820160405280156104875781602001602082028038833980820191505090505b509050600260009054906101000a900473ffffffffffffffffffffffffffffffffffffffff16816000815181106104ba57fe5b602002602001019073ffffffffffffffffffffffffffffffffffffffff16908173ffffffffffffffffffffffffffffffffffffffff1681525050600360009054906101000a900473ffffffffffffffffffffffffffffffffffffffff168160018151811061052457fe5b602002602001019073ffffffffffffffffffffffffffffffffffffffff16908173ffffffffffffffffffffffffffffffffffffffff16815250506060600160009054906101000a900473ffffffffffffffffffffffffffffffffffffffff1673ffffffffffffffffffffffffffffffffffffffff1663d06ca61f47846040518363ffffffff1660e01b81526004016105bd92919061215a565b60006040518083038186803b1580156105d557600080fd5b505afa1580156105e9573d6000803e3d6000fd5b505050506040513d6000823e3d601f19601f820116820180604052506106129190810190611994565b9050600160009054906101000a900473ffffffffffffffffffffffffffffffffffffffff1673ffffffffffffffffffffffffffffffffffffffff1663fb3bdb41478360018151811061066057fe5b60200260200101518530426040518663ffffffff1660e01b815260040161068a949392919061218a565b6000604051808303818588803b1580156106a357600080fd5b505af11580156106b7573d6000803e3d6000fd5b50505050506040513d6000823e3d601f19601f820116820180604052506106e19190810190611994565b50505050610c08565b600360009054906101000a900473ffffffffffffffffffffffffffffffffffffffff1673ffffffffffffffffffffffffffffffffffffffff1663095ea7b3600160009054906101000a900473ffffffffffffffffffffffffffffffffffffffff16836040518363ffffffff1660e01b8152600401610769929190611f96565b602060405180830381600087803b15801561078357600080fd5b505af1158015610797573d6000803e3d6000fd5b505050506040513d601f19601f820116820180604052506107bb91908101906119d5565b50606060026040519080825280602002602001820160405280156107ee5781602001602082028038833980820191505090505b509050600360009054906101000a900473ffffffffffffffffffffffffffffffffffffffff168160008151811061082157fe5b602002602001019073ffffffffffffffffffffffffffffffffffffffff16908173ffffffffffffffffffffffffffffffffffffffff1681525050600260009054906101000a900473ffffffffffffffffffffffffffffffffffffffff168160018151811061088b57fe5b602002602001019073ffffffffffffffffffffffffffffffffffffffff16908173ffffffffffffffffffffffffffffffffffffffff16815250506060600160009054906101000a900473ffffffffffffffffffffffffffffffffffffffff1673ffffffffffffffffffffffffffffffffffffffff1663d06ca61f84846040518363ffffffff1660e01b815260040161092492919061215a565b60006040518083038186803b15801561093c57600080fd5b505afa158015610950573d6000803e3d6000fd5b505050506040513d6000823e3d601f19601f820116820180604052506109799190810190611994565b9050600160009054906101000a900473ffffffffffffffffffffffffffffffffffffffff1673ffffffffffffffffffffffffffffffffffffffff166318cbafe584836001815181106109c757fe5b60200260200101518530426040518663ffffffff1660e01b81526004016109f29594939291906121d6565b600060405180830381600087803b158015610a0c57600080fd5b505af1158015610a20573d6000803e3d6000fd5b505050506040513d6000823e3d601f19601f82011682018060405250610a499190810190611994565b5060008060009054906101000a900473ffffffffffffffffffffffffffffffffffffffff1673ffffffffffffffffffffffffffffffffffffffff1663809a9e5573eeeeeeeeeeeeeeeeeeeeeeeeeeeeeeeeeeeeeeee600360009054906101000a900473ffffffffffffffffffffffffffffffffffffffff16476040518463ffffffff1660e01b8152600401610ae093929190611ff6565b604080518083038186803b158015610af757600080fd5b505afa158015610b0b573d6000803e3d6000fd5b505050506040513d601f19601f82011682018060405250610b2f9190810190611a50565b5090506000809054906101000a900473ffffffffffffffffffffffffffffffffffffffff1673ffffffffffffffffffffffffffffffffffffffff16637a2a045647600360009054906101000a900473ffffffffffffffffffffffffffffffffffffffff16846040518463ffffffff1660e01b8152600401610bb192919061202d565b6020604051808303818588803b158015610bca57600080fd5b505af1158015610bde573d6000803e3d6000fd5b50505050506040513d601f19601f82011682018060405250610c039190810190611a27565b505050505b600360009054906101000a900473ffffffffffffffffffffffffffffffffffffffff1673ffffffffffffffffffffffffffffffffffffffff166370a08231306040518263ffffffff1660e01b8152600401610c639190611f7b565b60206040518083038186803b158015610c7b57600080fd5b505afa158015610c8f573d6000803e3d6000fd5b505050506040513d601f19601f82011682018060405250610cb39190810190611a27565b90508160200151811015610cfc576040517f08c379a0000000000000000000000000000000000000000000000000000000008152600401610cf3906120c4565b60405180910390fd5b6000826020015182039050600360009054906101000a900473ffffffffffffffffffffffffffffffffffffffff1673ffffffffffffffffffffffffffffffffffffffff1663a9059cbb600460009054906101000a900473ffffffffffffffffffffffffffffffffffffffff16836040518363ffffffff1660e01b8152600401610d86929190611f96565b602060405180830381600087803b158015610da057600080fd5b505af1158015610db4573d6000803e3d6000fd5b505050506040513d601f19601f82011682018060405250610dd891908101906119d5565b507fa89b78c8d1240154beaf4b865d2d7cb794ac0f358c618aef3de102cf4a4ee42d83600001518242604051610e109392919061208d565b60405180910390a1505050505050565b60008490506000610e318686611089565b90506000610e3e8561123b565b90508573ffffffffffffffffffffffffffffffffffffffff1663095ea7b388836040518363ffffffff1660e01b8152600401610e7b929190611f96565b602060405180830381600087803b158015610e9557600080fd5b505af1158015610ea9573d6000803e3d6000fd5b505050506040513d601f19601f82011682018060405250610ecd91908101906119d5565b5060606003604051908082528060200260200182016040528015610f0b57816020015b610ef8611527565b815260200190600190039081610ef05790505b509050610f188387611258565b81600081518110610f2557fe5b6020026020010181905250610f776040518060400160405280876001811115610f4a57fe5b815260200184815250604051602001610f639190612124565b604051602081830303815290604052611311565b81600181518110610f8457fe5b6020026020010181905250610f9983836113bb565b81600281518110610fa657fe5b602002602001018190525060606001604051908082528060200260200182016040528015610fee57816020015b610fdb611593565b815260200190600190039081610fd35790505b509050610ff9611474565b8160008151811061100657fe5b60200260200101819052508473ffffffffffffffffffffffffffffffffffffffff1663a67a6a4582846040518363ffffffff1660e01b815260040161104c929190611fbf565b600060405180830381600087803b15801561106657600080fd5b505af115801561107a573d6000803e3d6000fd5b50505050505050505050505050565b60008083905060008173ffffffffffffffffffffffffffffffffffffffff1663295c39a56040518163ffffffff1660e01b815260040160206040518083038186803b1580156110d757600080fd5b505afa1580156110eb573d6000803e3d6000fd5b505050506040513d601f19601f8201168201806040525061110f9190810190611a27565b9050600080600090505b828110156111f9578373ffffffffffffffffffffffffffffffffffffffff1663062bd3e9826040518263ffffffff1660e01b815260040161115a919061213f565b60206040518083038186803b15801561117257600080fd5b505afa158015611186573d6000803e3d6000fd5b505050506040513d601f19601f820116820180604052506111aa91908101906118a1565b91508573ffffffffffffffffffffffffffffffffffffffff168273ffffffffffffffffffffffffffffffffffffffff1614156111ec5780945050505050611235565b8080600101915050611119565b506040517f08c379a000000000000000000000000000000000000000000000000000000000815260040161122c90612104565b60405180910390fd5b92915050565b60006112516002836114ad90919063ffffffff16565b9050919050565b6112606115c3565b6040518061010001604052806001600881111561127957fe5b8152602001600081526020016040518060800160405280600015158152602001600060018111156112a657fe5b8152602001600060018111156112b857fe5b8152602001858152508152602001848152602001600081526020013073ffffffffffffffffffffffffffffffffffffffff1681526020016000815260200160405180602001604052806000815250815250905092915050565b6113196115c3565b60405180610100016040528060088081111561133157fe5b81526020016000815260200160405180608001604052806000151581526020016000600181111561135e57fe5b81526020016000600181111561137057fe5b81526020016000815250815260200160008152602001600081526020013073ffffffffffffffffffffffffffffffffffffffff16815260200160008152602001838152509050919050565b6113c36115c3565b604051806101000160405280600060088111156113dc57fe5b81526020016000815260200160405180608001604052806001151581526020016000600181111561140957fe5b81526020016000600181111561141b57fe5b8152602001858152508152602001848152602001600081526020013073ffffffffffffffffffffffffffffffffffffffff1681526020016000815260200160405180602001604052806000815250815250905092915050565b61147c61162f565b60405180604001604052803073ffffffffffffffffffffffffffffffffffffffff1681526020016001815250905090565b6000808284019050838110156114f8576040517f08c379a00000000000000000000000000000000000000000000000000000000081526004016114ef906120e4565b60405180910390fd5b8091505092915050565b60405180604001604052806000600181111561151a57fe5b8152602001600081525090565b6040518061010001604052806000600881111561154057fe5b81526020016000815260200161155461165f565b81526020016000815260200160008152602001600073ffffffffffffffffffffffffffffffffffffffff16815260200160008152602001606081525090565b6040518060400160405280600073ffffffffffffffffffffffffffffffffffffffff168152602001600081525090565b604051806101000160405280600060088111156115dc57fe5b8152602001600081526020016115f061165f565b81526020016000815260200160008152602001600073ffffffffffffffffffffffffffffffffffffffff16815260200160008152602001606081525090565b6040518060400160405280600073ffffffffffffffffffffffffffffffffffffffff168152602001600081525090565b60405180608001604052806000151581526020016000600181111561168057fe5b81526020016000600181111561169257fe5b8152602001600081525090565b6000813590506116ae81612546565b92915050565b6000815190506116c381612546565b92915050565b600082601f8301126116da57600080fd5b81516116ed6116e88261225d565b612230565b9150818183526020840193506020810190508385602084028201111561171257600080fd5b60005b838110156117425781611728888261188c565b845260208401935060208301925050600181019050611715565b5050505092915050565b60008151905061175b8161255d565b92915050565b600082601f83011261177257600080fd5b813561178561178082612285565b612230565b915080825260208301602083018583830111156117a157600080fd5b6117ac8382846124bf565b50505092915050565b6000813590506117c481612574565b92915050565b6000815190506117d981612574565b92915050565b6000604082840312156117f157600080fd5b6117fb6040612230565b9050600061180b848285016117ca565b600083015250602061181f8482850161188c565b60208301525092915050565b60006040828403121561183d57600080fd5b6118476040612230565b905060006118578482850161169f565b600083015250602061186b84828501611877565b60208301525092915050565b60008135905061188681612584565b92915050565b60008151905061189b81612584565b92915050565b6000602082840312156118b357600080fd5b60006118c1848285016116b4565b91505092915050565b600080600080608085870312156118e057600080fd5b60006118ee8782880161169f565b94505060206118ff8782880161169f565b935050604061191087828801611877565b9250506060611921878288016117b5565b91505092959194509250565b60008060006080848603121561194257600080fd5b60006119508682870161169f565b93505060206119618682870161182b565b925050606084013567ffffffffffffffff81111561197e57600080fd5b61198a86828701611761565b9150509250925092565b6000602082840312156119a657600080fd5b600082015167ffffffffffffffff8111156119c057600080fd5b6119cc848285016116c9565b91505092915050565b6000602082840312156119e757600080fd5b60006119f58482850161174c565b91505092915050565b600060408284031215611a1057600080fd5b6000611a1e848285016117df565b91505092915050565b600060208284031215611a3957600080fd5b6000611a478482850161188c565b91505092915050565b60008060408385031215611a6357600080fd5b6000611a718582860161188c565b9250506020611a828582860161188c565b9150509250929050565b6000611a988383611adf565b60208301905092915050565b6000611ab08383611ddc565b905092915050565b6000611ac48383611f13565b60408301905092915050565b611ad98161241d565b82525050565b611ae881612389565b82525050565b611af781612389565b82525050565b6000611b08826122e1565b611b128185612334565b9350611b1d836122b1565b8060005b83811015611b4e578151611b358882611a8c565b9750611b408361230d565b925050600181019050611b21565b5085935050505092915050565b6000611b66826122ec565b611b708185612345565b935083602082028501611b82856122c1565b8060005b85811015611bbe5784840389528151611b9f8582611aa4565b9450611baa8361231a565b925060208a01995050600181019050611b86565b50829750879550505050505092915050565b6000611bdb826122f7565b611be58185612356565b9350611bf0836122d1565b8060005b83811015611c21578151611c088882611ab8565b9750611c1383612327565b925050600181019050611bf4565b5085935050505092915050565b611c378161239b565b82525050565b6000611c4882612302565b611c528185612367565b9350611c628185602086016124ce565b611c6b81612501565b840191505092915050565b611c7f8161242f565b82525050565b611c8e81612453565b82525050565b611c9d81612465565b82525050565b611cac81612477565b82525050565b611cbb81612489565b82525050565b611cca81612489565b82525050565b6000611cdd602383612378565b91507f4e6f7420656e6f7567682066756e647320746f2072657061792064796478206c60008301527f6f616e00000000000000000000000000000000000000000000000000000000006020830152604082019050919050565b6000611d43601b83612378565b91507f536166654d6174683a206164646974696f6e206f766572666c6f7700000000006000830152602082019050919050565b6000611d83602483612378565b91507f4e6f206d61726b6574496420666f756e6420666f722070726f7669646564207460008301527f6f6b656e000000000000000000000000000000000000000000000000000000006020830152604082019050919050565b600061016083016000830151611df56000860182611c85565b506020830151611e086020860182611f42565b506040830151611e1b6040860182611ebe565b506060830151611e2e60c0860182611f42565b506080830151611e4160e0860182611f42565b5060a0830151611e55610100860182611adf565b5060c0830151611e69610120860182611f42565b5060e0830151848203610140860152611e828282611c3d565b9150508091505092915050565b604082016000820151611ea56000850182611cb2565b506020820151611eb86020850182611f42565b50505050565b608082016000820151611ed46000850182611c2e565b506020820151611ee76020850182611c94565b506040820151611efa6040850182611ca3565b506060820151611f0d6060850182611f42565b50505050565b604082016000820151611f296000850182611adf565b506020820151611f3c6020850182611f42565b50505050565b611f4b81612413565b82525050565b611f5a81612413565b82525050565b6000602082019050611f756000830184611aee565b92915050565b6000602082019050611f906000830184611ad0565b92915050565b6000604082019050611fab6000830185611aee565b611fb86020830184611f51565b9392505050565b60006040820190508181036000830152611fd98185611bd0565b90508181036020830152611fed8184611b5b565b90509392505050565b600060608201905061200b6000830186611c76565b6120186020830185611c76565b6120256040830184611f51565b949350505050565b60006040820190506120426000830185611c76565b61204f6020830184611f51565b9392505050565b600060608201905061206b6000830186611c76565b6120786020830185611f51565b6120856040830184611f51565b949350505050565b60006060820190506120a26000830186611cc1565b6120af6020830185611f51565b6120bc6040830184611f51565b949350505050565b600060208201905081810360008301526120dd81611cd0565b9050919050565b600060208201905081810360008301526120fd81611d36565b9050919050565b6000602082019050818103600083015261211d81611d76565b9050919050565b60006040820190506121396000830184611e8f565b92915050565b60006020820190506121546000830184611f51565b92915050565b600060408201905061216f6000830185611f51565b81810360208301526121818184611afd565b90509392505050565b600060808201905061219f6000830187611f51565b81810360208301526121b18186611afd565b90506121c06040830185611ad0565b6121cd6060830184611f51565b95945050505050565b600060a0820190506121eb6000830188611f51565b6121f86020830187611f51565b818103604083015261220a8186611afd565b90506122196060830185611ad0565b6122266080830184611f51565b9695505050505050565b6000604051905081810181811067ffffffffffffffff8211171561225357600080fd5b8060405250919050565b600067ffffffffffffffff82111561227457600080fd5b602082029050602081019050919050565b600067ffffffffffffffff82111561229c57600080fd5b601f19601f8301169050602081019050919050565b6000819050602082019050919050565b6000819050602082019050919050565b6000819050602082019050919050565b600081519050919050565b600081519050919050565b600081519050919050565b600081519050919050565b6000602082019050919050565b6000602082019050919050565b6000602082019050919050565b600082825260208201905092915050565b600082825260208201905092915050565b600082825260208201905092915050565b600082825260208201905092915050565b600082825260208201905092915050565b6000612394826123f3565b9050919050565b60008115159050919050565b60008190506123b582612512565b919050565b60008190506123c88261251f565b919050565b60008190506123db8261252c565b919050565b60008190506123ee82612539565b919050565b600073ffffffffffffffffffffffffffffffffffffffff82169050919050565b6000819050919050565b60006124288261249b565b9050919050565b600061243a82612441565b9050919050565b600061244c826123f3565b9050919050565b600061245e826123a7565b9050919050565b6000612470826123ba565b9050919050565b6000612482826123cd565b9050919050565b6000612494826123e0565b9050919050565b60006124a6826124ad565b9050919050565b60006124b8826123f3565b9050919050565b82818337600083830152505050565b60005b838110156124ec5780820151818401526020810190506124d1565b838111156124fb576000848401525b50505050565b6000601f19601f8301169050919050565b6009811061251c57fe5b50565b6002811061252957fe5b50565b6002811061253657fe5b50565b6002811061254357fe5b50565b61254f81612389565b811461255a57600080fd5b50565b6125668161239b565b811461257157600080fd5b50565b6002811061258157600080fd5b50565b61258d81612413565b811461259857600080fd5b5056fea365627a7a72315820ff76082248dcdc3b7a8ef6d029c4f92e4766049392c1df2ce1b706b8b7e48d986c6578706572696d656e74616cf564736f6c63430005110040",
  "source": "pragma solidity ^0.5.0;\npragma experimental ABIEncoderV2;\n\nimport \"@studydefi/money-legos/dydx/contracts/DydxFlashloanBase.sol\";\nimport \"@studydefi/money-legos/dydx/contracts/ICallee.sol\";\nimport { KyberNetworkProxy as IKyberNetworkProxy } from \"@studydefi/money-legos/kyber/contracts/KyberNetworkProxy.sol\";\n\nimport \"@openzeppelin/contracts/token/ERC20/IERC20.sol\";\n\nimport \"./IUniswapV2Router02.sol\";\nimport \"./IWeth.sol\";\n\n\ncontract Flashloan is ICallee, DydxFlashloanBase {\n  enum Direction { KyberToUniswap, UniswapToKyber } \n  struct ArbInfo {\n    Direction direction;\n    uint repayAmount;\n  }\n\n  IKyberNetworkProxy kyber;\n  IUniswapV2Router02 uniswap;\n  IWeth weth;\n  IERC20 dai;\n  address constant KYBER_ETH_ADDRESS = 0xEeeeeEeeeEeEeeEeEeEeeEEEeeeeEeeeeeeeEEeE;\n  uint256 constant dydxFeeInWei = 2;\n  address public beneficiary;\n\n  event NewArbitrage(Direction _direction, uint256 _profit, uint256 _time);\n\n  constructor(address _kyberAddress, address _uniswapAddress, address _wethAddress, address _daiAddress, address _beneficiary) public {\n    kyber = IKyberNetworkProxy(_kyberAddress);\n    uniswap = IUniswapV2Router02(_uniswapAddress);\n    weth = IWeth(_wethAddress);\n    dai = IERC20(_daiAddress);\n    beneficiary = _beneficiary;\n  }\n\n  // This is the function that will be called postLoan\n  // i.e. Encode the logic to handle your flashloaned funds here\n  function callFunction(address sender, Account.Info memory account, bytes memory data) public {\n    ArbInfo memory arbInfo = abi.decode(data, (ArbInfo));\n    uint256 balanceDai = dai.balanceOf(address(this));\n\n    if (arbInfo.direction == Direction.KyberToUniswap) {\n      /* Buy ETH on Kyber */\n      /* approve Kyber to spend our dai on our behalf */\n      dai.approve(address(kyber), balanceDai);\n      (uint256 expectedRate, ) = kyber.getExpectedRate(dai, IERC20(KYBER_ETH_ADDRESS), balanceDai);\n      kyber.swapTokenToEther(dai, balanceDai, expectedRate);\n\n      /* Sell on Uniswap */\n      address[] memory path = new address[](2);\n      path[0] = address(weth);\n      path[1] = address(dai);\n      uint256[] memory minOuts = uniswap.getAmountsOut(address(this).balance, path);\n      \n      /* using this syntax because need to send ETH to this function */\n      /* with now as deadline, we can protect ourselves against market movement, it could happen that our transaction is executed */\n      /* way after when we initiated from outside and at that point marktes have moved in opposite direction */\n      uniswap.swapETHForExactTokens.value(address(this).balance)(minOuts[1], path, address(this), now);\n    } else {\n      /* Buy ETH on Uniswap */\n      /* approve Uniswap to spend our dai on our behalf */\n      dai.approve(address(uniswap), balanceDai);\n      address[] memory path = new address[](2);\n      path[0] = address(dai);\n      path[1] = address(weth);\n      uint256[] memory minOuts = uniswap.getAmountsOut(balanceDai, path);\n      uniswap.swapExactTokensForETH(balanceDai, minOuts[1], path, address(this), now);\n\n      /* Sell on Kyber */\n      (uint256 expectedRate, ) = kyber.getExpectedRate(IERC20(KYBER_ETH_ADDRESS), dai, address(this).balance);\n      kyber.swapEtherToToken.value(address(this).balance)(dai, expectedRate);      \n    }\n\n    /* recompute the balance */\n    balanceDai = dai.balanceOf(address(this));\n    require(balanceDai >= arbInfo.repayAmount, 'Not enough funds to repay dydx loan');\n\n    uint256 profit = balanceDai - arbInfo.repayAmount;\n    dai.transfer(beneficiary, profit);\n    emit NewArbitrage(arbInfo.direction, profit, now);\n  }\n\n  function initiateFlashloan(address _solo, address _token, uint256 _amount, Direction _direction) external {\n    ISoloMargin solo = ISoloMargin(_solo);\n\n    // Get marketId from token address\n    uint256 marketId = _getMarketIdFromTokenAddress(_solo, _token);\n\n    // Calculate repay amount (_amount + (2 wei))\n    // Approve transfer from\n    uint256 repayAmount = _getRepaymentAmountInternal(_amount);\n    IERC20(_token).approve(_solo, repayAmount);\n\n    // 1. Withdraw $\n    // 2. Call callFunction(...)\n    // 3. Deposit back $\n    Actions.ActionArgs[] memory operations = new Actions.ActionArgs[](3);\n\n    operations[0] = _getWithdrawAction(marketId, _amount);\n    operations[1] = _getCallAction(\n      // Encode MyCustomData for callFunction\n      abi.encode(ArbInfo({direction: _direction, repayAmount: repayAmount}))\n    );\n    operations[2] = _getDepositAction(marketId, repayAmount);\n\n    Account.Info[] memory accountInfos = new Account.Info[](1);\n    accountInfos[0] = _getAccountInfo();\n\n    solo.operate(accountInfos, operations);\n  }\n\n  function() external payable {}\n}",
  "sourcePath": "/home/jsan/projects/flashloans/contracts/Flashloan.sol",
  "compiler": {
    "name": "solc",
    "version": "0.5.17+commit.d19bba13.Emscripten.clang"
  },
  "schemaVersion": "3.4.6",
  "updatedAt": "2022-04-27T11:39:09.194Z",
  "devdoc": {
    "methods": {}
  },
  "userdoc": {
    "methods": {}
  }
}